{
  "_format": "hh3-artifact-1",
  "contractName": "ALUAssetRegistry",
  "sourceName": "contracts/ALUAssertRegistry.sol",
  "abi": [
    {
      "inputs": [],
      "stateMutability": "nonpayable",
      "type": "constructor"
    },
    {
      "inputs": [
        {
          "internalType": "address",
          "name": "sender",
          "type": "address"
        },
        {
          "internalType": "uint256",
          "name": "tokenId",
          "type": "uint256"
        },
        {
          "internalType": "address",
          "name": "owner",
          "type": "address"
        }
      ],
      "name": "ERC721IncorrectOwner",
      "type": "error"
    },
    {
      "inputs": [
        {
          "internalType": "address",
          "name": "operator",
          "type": "address"
        },
        {
          "internalType": "uint256",
          "name": "tokenId",
          "type": "uint256"
        }
      ],
      "name": "ERC721InsufficientApproval",
      "type": "error"
    },
    {
      "inputs": [
        {
          "internalType": "address",
          "name": "approver",
          "type": "address"
        }
      ],
      "name": "ERC721InvalidApprover",
      "type": "error"
    },
    {
      "inputs": [
        {
          "internalType": "address",
          "name": "operator",
          "type": "address"
        }
      ],
      "name": "ERC721InvalidOperator",
      "type": "error"
    },
    {
      "inputs": [
        {
          "internalType": "address",
          "name": "owner",
          "type": "address"
        }
      ],
      "name": "ERC721InvalidOwner",
      "type": "error"
    },
    {
      "inputs": [
        {
          "internalType": "address",
          "name": "receiver",
          "type": "address"
        }
      ],
      "name": "ERC721InvalidReceiver",
      "type": "error"
    },
    {
      "inputs": [
        {
          "internalType": "address",
          "name": "sender",
          "type": "address"
        }
      ],
      "name": "ERC721InvalidSender",
      "type": "error"
    },
    {
      "inputs": [
        {
          "internalType": "uint256",
          "name": "tokenId",
          "type": "uint256"
        }
      ],
      "name": "ERC721NonexistentToken",
      "type": "error"
    },
    {
      "inputs": [
        {
          "internalType": "address",
          "name": "owner",
          "type": "address"
        }
      ],
      "name": "OwnableInvalidOwner",
      "type": "error"
    },
    {
      "inputs": [
        {
          "internalType": "address",
          "name": "account",
          "type": "address"
        }
      ],
      "name": "OwnableUnauthorizedAccount",
      "type": "error"
    },
    {
      "anonymous": false,
      "inputs": [
        {
          "indexed": true,
          "internalType": "address",
          "name": "owner",
          "type": "address"
        },
        {
          "indexed": true,
          "internalType": "address",
          "name": "approved",
          "type": "address"
        },
        {
          "indexed": true,
          "internalType": "uint256",
          "name": "tokenId",
          "type": "uint256"
        }
      ],
      "name": "Approval",
      "type": "event"
    },
    {
      "anonymous": false,
      "inputs": [
        {
          "indexed": true,
          "internalType": "address",
          "name": "owner",
          "type": "address"
        },
        {
          "indexed": true,
          "internalType": "address",
          "name": "operator",
          "type": "address"
        },
        {
          "indexed": false,
          "internalType": "bool",
          "name": "approved",
          "type": "bool"
        }
      ],
      "name": "ApprovalForAll",
      "type": "event"
    },
    {
      "anonymous": false,
      "inputs": [
        {
          "indexed": true,
          "internalType": "uint256",
          "name": "tokenId",
          "type": "uint256"
        },
        {
          "indexed": false,
          "internalType": "string",
          "name": "name",
          "type": "string"
        },
        {
          "indexed": false,
          "internalType": "bytes32",
          "name": "contentHash",
          "type": "bytes32"
        }
      ],
      "name": "AssetRegistered",
      "type": "event"
    },
    {
      "anonymous": false,
      "inputs": [
        {
          "indexed": true,
          "internalType": "address",
          "name": "previousOwner",
          "type": "address"
        },
        {
          "indexed": true,
          "internalType": "address",
          "name": "newOwner",
          "type": "address"
        }
      ],
      "name": "OwnershipTransferred",
      "type": "event"
    },
    {
      "anonymous": false,
      "inputs": [
        {
          "indexed": true,
          "internalType": "address",
          "name": "from",
          "type": "address"
        },
        {
          "indexed": true,
          "internalType": "address",
          "name": "to",
          "type": "address"
        },
        {
          "indexed": true,
          "internalType": "uint256",
          "name": "tokenId",
          "type": "uint256"
        }
      ],
      "name": "Transfer",
      "type": "event"
    },
    {
      "inputs": [
        {
          "internalType": "address",
          "name": "to",
          "type": "address"
        },
        {
          "internalType": "uint256",
          "name": "tokenId",
          "type": "uint256"
        }
      ],
      "name": "approve",
      "outputs": [],
      "stateMutability": "nonpayable",
      "type": "function"
    },
    {
      "inputs": [
        {
          "internalType": "address",
          "name": "owner",
          "type": "address"
        }
      ],
      "name": "balanceOf",
      "outputs": [
        {
          "internalType": "uint256",
          "name": "",
          "type": "uint256"
        }
      ],
      "stateMutability": "view",
      "type": "function"
    },
    {
      "inputs": [
        {
          "internalType": "uint256",
          "name": "tokenId",
          "type": "uint256"
        }
      ],
      "name": "getApproved",
      "outputs": [
        {
          "internalType": "address",
          "name": "",
          "type": "address"
        }
      ],
      "stateMutability": "view",
      "type": "function"
    },
    {
      "inputs": [
        {
          "internalType": "uint256",
          "name": "tokenId",
          "type": "uint256"
        }
      ],
      "name": "getAsset",
      "outputs": [
        {
          "components": [
            {
              "internalType": "string",
              "name": "name",
              "type": "string"
            },
            {
              "internalType": "string",
              "name": "fileType",
              "type": "string"
            },
            {
              "internalType": "bytes32",
              "name": "contentHash",
              "type": "bytes32"
            },
            {
              "internalType": "address",
              "name": "registeredBy",
              "type": "address"
            },
            {
              "internalType": "uint256",
              "name": "timestamp",
              "type": "uint256"
            }
          ],
          "internalType": "struct ALUAssetRegistry.AssetMetadata",
          "name": "",
          "type": "tuple"
        }
      ],
      "stateMutability": "view",
      "type": "function"
    },
    {
      "inputs": [
        {
          "internalType": "bytes32",
          "name": "",
          "type": "bytes32"
        }
      ],
      "name": "hashExists",
      "outputs": [
        {
          "internalType": "bool",
          "name": "",
          "type": "bool"
        }
      ],
      "stateMutability": "view",
      "type": "function"
    },
    {
      "inputs": [
        {
          "internalType": "uint256",
          "name": "",
          "type": "uint256"
        }
      ],
      "name": "idToAsset",
      "outputs": [
        {
          "internalType": "string",
          "name": "name",
          "type": "string"
        },
        {
          "internalType": "string",
          "name": "fileType",
          "type": "string"
        },
        {
          "internalType": "bytes32",
          "name": "contentHash",
          "type": "bytes32"
        },
        {
          "internalType": "address",
          "name": "registeredBy",
          "type": "address"
        },
        {
          "internalType": "uint256",
          "name": "timestamp",
          "type": "uint256"
        }
      ],
      "stateMutability": "view",
      "type": "function"
    },
    {
      "inputs": [
        {
          "internalType": "address",
          "name": "owner",
          "type": "address"
        },
        {
          "internalType": "address",
          "name": "operator",
          "type": "address"
        }
      ],
      "name": "isApprovedForAll",
      "outputs": [
        {
          "internalType": "bool",
          "name": "",
          "type": "bool"
        }
      ],
      "stateMutability": "view",
      "type": "function"
    },
    {
      "inputs": [],
      "name": "name",
      "outputs": [
        {
          "internalType": "string",
          "name": "",
          "type": "string"
        }
      ],
      "stateMutability": "view",
      "type": "function"
    },
    {
      "inputs": [],
      "name": "owner",
      "outputs": [
        {
          "internalType": "address",
          "name": "",
          "type": "address"
        }
      ],
      "stateMutability": "view",
      "type": "function"
    },
    {
      "inputs": [
        {
          "internalType": "uint256",
          "name": "tokenId",
          "type": "uint256"
        }
      ],
      "name": "ownerOf",
      "outputs": [
        {
          "internalType": "address",
          "name": "",
          "type": "address"
        }
      ],
      "stateMutability": "view",
      "type": "function"
    },
    {
      "inputs": [
        {
          "internalType": "string",
          "name": "name",
          "type": "string"
        },
        {
          "internalType": "string",
          "name": "fileType",
          "type": "string"
        },
        {
          "internalType": "bytes32",
          "name": "contentHash",
          "type": "bytes32"
        }
      ],
      "name": "registerAsset",
      "outputs": [
        {
          "internalType": "uint256",
          "name": "",
          "type": "uint256"
        }
      ],
      "stateMutability": "nonpayable",
      "type": "function"
    },
    {
      "inputs": [],
      "name": "renounceOwnership",
      "outputs": [],
      "stateMutability": "nonpayable",
      "type": "function"
    },
    {
      "inputs": [
        {
          "internalType": "address",
          "name": "from",
          "type": "address"
        },
        {
          "internalType": "address",
          "name": "to",
          "type": "address"
        },
        {
          "internalType": "uint256",
          "name": "tokenId",
          "type": "uint256"
        }
      ],
      "name": "safeTransferFrom",
      "outputs": [],
      "stateMutability": "nonpayable",
      "type": "function"
    },
    {
      "inputs": [
        {
          "internalType": "address",
          "name": "from",
          "type": "address"
        },
        {
          "internalType": "address",
          "name": "to",
          "type": "address"
        },
        {
          "internalType": "uint256",
          "name": "tokenId",
          "type": "uint256"
        },
        {
          "internalType": "bytes",
          "name": "data",
          "type": "bytes"
        }
      ],
      "name": "safeTransferFrom",
      "outputs": [],
      "stateMutability": "nonpayable",
      "type": "function"
    },
    {
      "inputs": [
        {
          "internalType": "address",
          "name": "operator",
          "type": "address"
        },
        {
          "internalType": "bool",
          "name": "approved",
          "type": "bool"
        }
      ],
      "name": "setApprovalForAll",
      "outputs": [],
      "stateMutability": "nonpayable",
      "type": "function"
    },
    {
      "inputs": [
        {
          "internalType": "bytes4",
          "name": "interfaceId",
          "type": "bytes4"
        }
      ],
      "name": "supportsInterface",
      "outputs": [
        {
          "internalType": "bool",
          "name": "",
          "type": "bool"
        }
      ],
      "stateMutability": "view",
      "type": "function"
    },
    {
      "inputs": [],
      "name": "symbol",
      "outputs": [
        {
          "internalType": "string",
          "name": "",
          "type": "string"
        }
      ],
      "stateMutability": "view",
      "type": "function"
    },
    {
      "inputs": [
        {
          "internalType": "uint256",
          "name": "tokenId",
          "type": "uint256"
        }
      ],
      "name": "tokenURI",
      "outputs": [
        {
          "internalType": "string",
          "name": "",
          "type": "string"
        }
      ],
      "stateMutability": "view",
      "type": "function"
    },
    {
      "inputs": [
        {
          "internalType": "address",
          "name": "from",
          "type": "address"
        },
        {
          "internalType": "address",
          "name": "to",
          "type": "address"
        },
        {
          "internalType": "uint256",
          "name": "tokenId",
          "type": "uint256"
        }
      ],
      "name": "transferFrom",
      "outputs": [],
      "stateMutability": "nonpayable",
      "type": "function"
    },
    {
      "inputs": [
        {
          "internalType": "address",
          "name": "newOwner",
          "type": "address"
        }
      ],
      "name": "transferOwnership",
      "outputs": [],
      "stateMutability": "nonpayable",
      "type": "function"
    },
    {
      "inputs": [
        {
          "internalType": "uint256",
          "name": "tokenId",
          "type": "uint256"
        },
        {
          "internalType": "bytes32",
          "name": "providedHash",
          "type": "bytes32"
        }
      ],
      "name": "verifyLogoIntegrity",
      "outputs": [
        {
          "internalType": "bool",
          "name": "",
          "type": "bool"
        },
        {
          "internalType": "string",
          "name": "",
          "type": "string"
        }
      ],
      "stateMutability": "view",
      "type": "function"
    }
  ],
  "bytecode": "0x608060405234801561000f575f5ffd5b50336040518060400160405280600c81526020017f414c55204c6f676f204e465400000000000000000000000000000000000000008152506040518060400160405280600481526020017f414c554c00000000000000000000000000000000000000000000000000000000815250815f908161008b9190610423565b50806001908161009b9190610423565b5050505f73ffffffffffffffffffffffffffffffffffffffff168173ffffffffffffffffffffffffffffffffffffffff160361010e575f6040517f1e4fbdf70000000000000000000000000000000000000000000000000000000081526004016101059190610531565b60405180910390fd5b61011d8161012360201b60201c565b5061054a565b5f60065f9054906101000a900473ffffffffffffffffffffffffffffffffffffffff1690508160065f6101000a81548173ffffffffffffffffffffffffffffffffffffffff021916908373ffffffffffffffffffffffffffffffffffffffff1602179055508173ffffffffffffffffffffffffffffffffffffffff168173ffffffffffffffffffffffffffffffffffffffff167f8be0079c531659141344cd1fd0a4f28419497f9722a3daafe3b4186f6b6457e060405160405180910390a35050565b5f81519050919050565b7f4e487b71000000000000000000000000000000000000000000000000000000005f52604160045260245ffd5b7f4e487b71000000000000000000000000000000000000000000000000000000005f52602260045260245ffd5b5f600282049050600182168061026157607f821691505b6020821081036102745761027361021d565b5b50919050565b5f819050815f5260205f209050919050565b5f6020601f8301049050919050565b5f82821b905092915050565b5f600883026102d67fffffffffffffffffffffffffffffffffffffffffffffffffffffffffffffffff8261029b565b6102e0868361029b565b95508019841693508086168417925050509392505050565b5f819050919050565b5f819050919050565b5f61032461031f61031a846102f8565b610301565b6102f8565b9050919050565b5f819050919050565b61033d8361030a565b6103516103498261032b565b8484546102a7565b825550505050565b5f5f905090565b610368610359565b610373818484610334565b505050565b5b818110156103965761038b5f82610360565b600181019050610379565b5050565b601f8211156103db576103ac8161027a565b6103b58461028c565b810160208510156103c4578190505b6103d86103d08561028c565b830182610378565b50505b505050565b5f82821c905092915050565b5f6103fb5f19846008026103e0565b1980831691505092915050565b5f61041383836103ec565b9150826002028217905092915050565b61042c826101e6565b67ffffffffffffffff811115610445576104446101f0565b5b61044f825461024a565b61045a82828561039a565b5f60209050601f83116001811461048b575f8415610479578287015190505b6104838582610408565b8655506104ea565b601f1984166104998661027a565b5f5b828110156104c05784890151825560018201915060208501945060208101905061049b565b868310156104dd57848901516104d9601f8916826103ec565b8355505b6001600288020188555050505b505050505050565b5f73ffffffffffffffffffffffffffffffffffffffff82169050919050565b5f61051b826104f2565b9050919050565b61052b81610511565b82525050565b5f6020820190506105445f830184610522565b92915050565b612df5806105575f395ff3fe608060405234801561000f575f5ffd5b5060043610610135575f3560e01c80638da5cb5b116100b6578063b88d4fde1161007a578063b88d4fde1461035e578063c688fca71461037a578063c87b56dd146103ae578063e985e9c5146103de578063eac8f5b81461040e578063f2fde38b1461043e57610135565b80638da5cb5b146102a557806395d89b41146102c357806397e430ee146102e1578063a22cb46514610312578063b535b5c31461032e57610135565b806342842e0e116100fd57806342842e0e146101ef5780636352211e1461020b57806370a082311461023b578063715018a61461026b5780638802a5411461027557610135565b806301ffc9a71461013957806306fdde0314610169578063081812fc14610187578063095ea7b3146101b757806323b872dd146101d3575b5f5ffd5b610153600480360381019061014e9190611f94565b61045a565b6040516101609190611fd9565b60405180910390f35b61017161053b565b60405161017e9190612062565b60405180910390f35b6101a1600480360381019061019c91906120b5565b6105ca565b6040516101ae919061211f565b60405180910390f35b6101d160048036038101906101cc9190612162565b6105e5565b005b6101ed60048036038101906101e891906121a0565b6105fb565b005b610209600480360381019061020491906121a0565b6106fa565b005b610225600480360381019061022091906120b5565b610719565b604051610232919061211f565b60405180910390f35b610255600480360381019061025091906121f0565b61072a565b604051610262919061222a565b60405180910390f35b6102736107e0565b005b61028f600480360381019061028a91906123a2565b6107f3565b60405161029c919061222a565b60405180910390f35b6102ad6109b8565b6040516102ba919061211f565b60405180910390f35b6102cb6109e0565b6040516102d89190612062565b60405180910390f35b6102fb60048036038101906102f6919061242a565b610a70565b604051610309929190612468565b60405180910390f35b61032c600480360381019061032791906124c0565b610b12565b005b610348600480360381019061034391906124fe565b610b28565b6040516103559190611fd9565b60405180910390f35b610378600480360381019061037391906125c7565b610b45565b005b610394600480360381019061038f91906120b5565b610b6a565b6040516103a5959493929190612656565b60405180910390f35b6103c860048036038101906103c391906120b5565b610cc7565b6040516103d59190612062565b60405180910390f35b6103f860048036038101906103f391906126b5565b610d2d565b6040516104059190611fd9565b60405180910390f35b610428600480360381019061042391906120b5565b610dbb565b60405161043591906127e2565b60405180910390f35b610458600480360381019061045391906121f0565b610f6e565b005b5f7f80ac58cd000000000000000000000000000000000000000000000000000000007bffffffffffffffffffffffffffffffffffffffffffffffffffffffff1916827bffffffffffffffffffffffffffffffffffffffffffffffffffffffff1916148061052457507f5b5e139f000000000000000000000000000000000000000000000000000000007bffffffffffffffffffffffffffffffffffffffffffffffffffffffff1916827bffffffffffffffffffffffffffffffffffffffffffffffffffffffff1916145b80610534575061053382610ff2565b5b9050919050565b60605f80546105499061282f565b80601f01602080910402602001604051908101604052809291908181526020018280546105759061282f565b80156105c05780601f10610597576101008083540402835291602001916105c0565b820191905f5260205f20905b8154815290600101906020018083116105a357829003601f168201915b5050505050905090565b5f6105d48261105b565b506105de826110e1565b9050919050565b6105f782826105f261111a565b611121565b5050565b5f73ffffffffffffffffffffffffffffffffffffffff168273ffffffffffffffffffffffffffffffffffffffff160361066b575f6040517f64a0ae92000000000000000000000000000000000000000000000000000000008152600401610662919061211f565b60405180910390fd5b5f61067e838361067961111a565b611133565b90508373ffffffffffffffffffffffffffffffffffffffff168173ffffffffffffffffffffffffffffffffffffffff16146106f4578382826040517f64283d7b0000000000000000000000000000000000000000000000000000000081526004016106eb9392919061285f565b60405180910390fd5b50505050565b61071483838360405180602001604052805f815250610b45565b505050565b5f6107238261105b565b9050919050565b5f5f73ffffffffffffffffffffffffffffffffffffffff168273ffffffffffffffffffffffffffffffffffffffff160361079b575f6040517f89c62b64000000000000000000000000000000000000000000000000000000008152600401610792919061211f565b60405180910390fd5b60035f8373ffffffffffffffffffffffffffffffffffffffff1673ffffffffffffffffffffffffffffffffffffffff1681526020019081526020015f20549050919050565b6107e861133e565b6107f15f6113c5565b565b5f60095f8381526020019081526020015f205f9054906101000a900460ff1615610852576040517f08c379a000000000000000000000000000000000000000000000000000000000815260040161084990612904565b60405180910390fd5b5f60075f8154809291906108659061294f565b9190505590506108753382611488565b6040518060a001604052808681526020018581526020018481526020013373ffffffffffffffffffffffffffffffffffffffff1681526020014281525060085f8381526020019081526020015f205f820151815f0190816108d69190612b36565b5060208201518160010190816108ec9190612b36565b50604082015181600201556060820151816003015f6101000a81548173ffffffffffffffffffffffffffffffffffffffff021916908373ffffffffffffffffffffffffffffffffffffffff16021790555060808201518160040155905050600160095f8581526020019081526020015f205f6101000a81548160ff021916908315150217905550807f4dad4075f58228212924924b14ef6b3c174667fb8212e27f8ac6e6de223f03a086856040516109a5929190612c05565b60405180910390a2809150509392505050565b5f60065f9054906101000a900473ffffffffffffffffffffffffffffffffffffffff16905090565b6060600180546109ef9061282f565b80601f0160208091040260200160405190810160405280929190818152602001828054610a1b9061282f565b8015610a665780601f10610a3d57610100808354040283529160200191610a66565b820191905f5260205f20905b815481529060010190602001808311610a4957829003601f168201915b5050505050905090565b5f60608260085f8681526020019081526020015f206002015403610acf5760016040518060400160405280601281526020017f4c6f676f2069732061757468656e7469632e000000000000000000000000000081525091509150610b0b565b5f6040518060400160405280601d81526020017f5761726e696e673a206c6f676f20646f6573206e6f74206d617463682e000000815250915091505b9250929050565b610b24610b1d61111a565b83836114a5565b5050565b6009602052805f5260405f205f915054906101000a900460ff1681565b610b508484846105fb565b610b64610b5b61111a565b8585858561167e565b50505050565b6008602052805f5260405f205f91509050805f018054610b899061282f565b80601f0160208091040260200160405190810160405280929190818152602001828054610bb59061282f565b8015610c005780601f10610bd757610100808354040283529160200191610c00565b820191905f5260205f20905b815481529060010190602001808311610be357829003601f168201915b505050505090806001018054610c159061282f565b80601f0160208091040260200160405190810160405280929190818152602001828054610c419061282f565b8015610c8c5780601f10610c6357610100808354040283529160200191610c8c565b820191905f5260205f20905b815481529060010190602001808311610c6f57829003601f168201915b505050505090806002015490806003015f9054906101000a900473ffffffffffffffffffffffffffffffffffffffff16908060040154905085565b6060610cd28261105b565b505f610cdc61182a565b90505f815111610cfa5760405180602001604052805f815250610d25565b80610d0484611840565b604051602001610d15929190612c6d565b6040516020818303038152906040525b915050919050565b5f60055f8473ffffffffffffffffffffffffffffffffffffffff1673ffffffffffffffffffffffffffffffffffffffff1681526020019081526020015f205f8373ffffffffffffffffffffffffffffffffffffffff1673ffffffffffffffffffffffffffffffffffffffff1681526020019081526020015f205f9054906101000a900460ff16905092915050565b610dc3611eec565b60085f8381526020019081526020015f206040518060a00160405290815f82018054610dee9061282f565b80601f0160208091040260200160405190810160405280929190818152602001828054610e1a9061282f565b8015610e655780601f10610e3c57610100808354040283529160200191610e65565b820191905f5260205f20905b815481529060010190602001808311610e4857829003601f168201915b50505050508152602001600182018054610e7e9061282f565b80601f0160208091040260200160405190810160405280929190818152602001828054610eaa9061282f565b8015610ef55780601f10610ecc57610100808354040283529160200191610ef5565b820191905f5260205f20905b815481529060010190602001808311610ed857829003601f168201915b5050505050815260200160028201548152602001600382015f9054906101000a900473ffffffffffffffffffffffffffffffffffffffff1673ffffffffffffffffffffffffffffffffffffffff1673ffffffffffffffffffffffffffffffffffffffff1681526020016004820154815250509050919050565b610f7661133e565b5f73ffffffffffffffffffffffffffffffffffffffff168173ffffffffffffffffffffffffffffffffffffffff1603610fe6575f6040517f1e4fbdf7000000000000000000000000000000000000000000000000000000008152600401610fdd919061211f565b60405180910390fd5b610fef816113c5565b50565b5f7f01ffc9a7000000000000000000000000000000000000000000000000000000007bffffffffffffffffffffffffffffffffffffffffffffffffffffffff1916827bffffffffffffffffffffffffffffffffffffffffffffffffffffffff1916149050919050565b5f5f6110668361190a565b90505f73ffffffffffffffffffffffffffffffffffffffff168173ffffffffffffffffffffffffffffffffffffffff16036110d857826040517f7e2732890000000000000000000000000000000000000000000000000000000081526004016110cf919061222a565b60405180910390fd5b80915050919050565b5f60045f8381526020019081526020015f205f9054906101000a900473ffffffffffffffffffffffffffffffffffffffff169050919050565b5f33905090565b61112e8383836001611943565b505050565b5f5f61113e8461190a565b90505f73ffffffffffffffffffffffffffffffffffffffff168373ffffffffffffffffffffffffffffffffffffffff161461117f5761117e818486611b02565b5b5f73ffffffffffffffffffffffffffffffffffffffff168173ffffffffffffffffffffffffffffffffffffffff161461120a576111be5f855f5f611943565b600160035f8373ffffffffffffffffffffffffffffffffffffffff1673ffffffffffffffffffffffffffffffffffffffff1681526020019081526020015f205f82825403925050819055505b5f73ffffffffffffffffffffffffffffffffffffffff168573ffffffffffffffffffffffffffffffffffffffff161461128957600160035f8773ffffffffffffffffffffffffffffffffffffffff1673ffffffffffffffffffffffffffffffffffffffff1681526020019081526020015f205f82825401925050819055505b8460025f8681526020019081526020015f205f6101000a81548173ffffffffffffffffffffffffffffffffffffffff021916908373ffffffffffffffffffffffffffffffffffffffff160217905550838573ffffffffffffffffffffffffffffffffffffffff168273ffffffffffffffffffffffffffffffffffffffff167fddf252ad1be2c89b69c2b068fc378daa952ba7f163c4a11628f55a4df523b3ef60405160405180910390a4809150509392505050565b61134661111a565b73ffffffffffffffffffffffffffffffffffffffff166113646109b8565b73ffffffffffffffffffffffffffffffffffffffff16146113c35761138761111a565b6040517f118cdaa70000000000000000000000000000000000000000000000000000000081526004016113ba919061211f565b60405180910390fd5b565b5f60065f9054906101000a900473ffffffffffffffffffffffffffffffffffffffff1690508160065f6101000a81548173ffffffffffffffffffffffffffffffffffffffff021916908373ffffffffffffffffffffffffffffffffffffffff1602179055508173ffffffffffffffffffffffffffffffffffffffff168173ffffffffffffffffffffffffffffffffffffffff167f8be0079c531659141344cd1fd0a4f28419497f9722a3daafe3b4186f6b6457e060405160405180910390a35050565b6114a1828260405180602001604052805f815250611bc5565b5050565b5f73ffffffffffffffffffffffffffffffffffffffff168373ffffffffffffffffffffffffffffffffffffffff1603611515575f6040517fa9fbf51f00000000000000000000000000000000000000000000000000000000815260040161150c919061211f565b60405180910390fd5b5f73ffffffffffffffffffffffffffffffffffffffff168273ffffffffffffffffffffffffffffffffffffffff160361158557816040517f5b08ba1800000000000000000000000000000000000000000000000000000000815260040161157c919061211f565b60405180910390fd5b8060055f8573ffffffffffffffffffffffffffffffffffffffff1673ffffffffffffffffffffffffffffffffffffffff1681526020019081526020015f205f8473ffffffffffffffffffffffffffffffffffffffff1673ffffffffffffffffffffffffffffffffffffffff1681526020019081526020015f205f6101000a81548160ff0219169083151502179055508173ffffffffffffffffffffffffffffffffffffffff168373ffffffffffffffffffffffffffffffffffffffff167f17307eab39ab6107e8899845ad3d59bd9653f200f220920489ca2b5937696c31836040516116719190611fd9565b60405180910390a3505050565b5f8373ffffffffffffffffffffffffffffffffffffffff163b1115611823578273ffffffffffffffffffffffffffffffffffffffff1663150b7a02868685856040518563ffffffff1660e01b81526004016116dc9493929190612ce2565b6020604051808303815f875af192505050801561171757506040513d601f19601f820116820180604052508101906117149190612d40565b60015b611798573d805f8114611745576040519150601f19603f3d011682016040523d82523d5f602084013e61174a565b606091505b505f81510361179057836040517f64a0ae92000000000000000000000000000000000000000000000000000000008152600401611787919061211f565b60405180910390fd5b805160208201fd5b63150b7a0260e01b7bffffffffffffffffffffffffffffffffffffffffffffffffffffffff1916817bffffffffffffffffffffffffffffffffffffffffffffffffffffffff19161461182157836040517f64a0ae92000000000000000000000000000000000000000000000000000000008152600401611818919061211f565b60405180910390fd5b505b5050505050565b606060405180602001604052805f815250905090565b60605f600161184e84611be8565b0190505f8167ffffffffffffffff81111561186c5761186b61224b565b5b6040519080825280601f01601f19166020018201604052801561189e5781602001600182028036833780820191505090505b5090505f82602083010190505b6001156118ff578080600190039150507f3031323334353637383961626364656600000000000000000000000000000000600a86061a8153600a85816118f4576118f3612d6b565b5b0494505f85036118ab575b819350505050919050565b5f60025f8381526020019081526020015f205f9054906101000a900473ffffffffffffffffffffffffffffffffffffffff169050919050565b808061197b57505f73ffffffffffffffffffffffffffffffffffffffff168273ffffffffffffffffffffffffffffffffffffffff1614155b15611aad575f61198a8461105b565b90505f73ffffffffffffffffffffffffffffffffffffffff168373ffffffffffffffffffffffffffffffffffffffff16141580156119f457508273ffffffffffffffffffffffffffffffffffffffff168173ffffffffffffffffffffffffffffffffffffffff1614155b8015611a075750611a058184610d2d565b155b15611a4957826040517fa9fbf51f000000000000000000000000000000000000000000000000000000008152600401611a40919061211f565b60405180910390fd5b8115611aab57838573ffffffffffffffffffffffffffffffffffffffff168273ffffffffffffffffffffffffffffffffffffffff167f8c5be1e5ebec7d5bd14f71427d1e84f3dd0314c0f7b2291e5b200ac8c7c3b92560405160405180910390a45b505b8360045f8581526020019081526020015f205f6101000a81548173ffffffffffffffffffffffffffffffffffffffff021916908373ffffffffffffffffffffffffffffffffffffffff16021790555050505050565b611b0d838383611d39565b611bc0575f73ffffffffffffffffffffffffffffffffffffffff168373ffffffffffffffffffffffffffffffffffffffff1603611b8157806040517f7e273289000000000000000000000000000000000000000000000000000000008152600401611b78919061222a565b60405180910390fd5b81816040517f177e802f000000000000000000000000000000000000000000000000000000008152600401611bb7929190612d98565b60405180910390fd5b505050565b611bcf8383611df9565b611be3611bda61111a565b5f85858561167e565b505050565b5f5f5f90507a184f03e93ff9f4daa797ed6e38ed64bf6a1f0100000000000000008310611c44577a184f03e93ff9f4daa797ed6e38ed64bf6a1f0100000000000000008381611c3a57611c39612d6b565b5b0492506040810190505b6d04ee2d6d415b85acef81000000008310611c81576d04ee2d6d415b85acef81000000008381611c7757611c76612d6b565b5b0492506020810190505b662386f26fc100008310611cb057662386f26fc100008381611ca657611ca5612d6b565b5b0492506010810190505b6305f5e1008310611cd9576305f5e1008381611ccf57611cce612d6b565b5b0492506008810190505b6127108310611cfe576127108381611cf457611cf3612d6b565b5b0492506004810190505b60648310611d215760648381611d1757611d16612d6b565b5b0492506002810190505b600a8310611d30576001810190505b80915050919050565b5f5f73ffffffffffffffffffffffffffffffffffffffff168373ffffffffffffffffffffffffffffffffffffffff1614158015611df057508273ffffffffffffffffffffffffffffffffffffffff168473ffffffffffffffffffffffffffffffffffffffff161480611db15750611db08484610d2d565b5b80611def57508273ffffffffffffffffffffffffffffffffffffffff16611dd7836110e1565b73ffffffffffffffffffffffffffffffffffffffff16145b5b90509392505050565b5f73ffffffffffffffffffffffffffffffffffffffff168273ffffffffffffffffffffffffffffffffffffffff1603611e69575f6040517f64a0ae92000000000000000000000000000000000000000000000000000000008152600401611e60919061211f565b60405180910390fd5b5f611e7583835f611133565b90505f73ffffffffffffffffffffffffffffffffffffffff168173ffffffffffffffffffffffffffffffffffffffff1614611ee7575f6040517f73c6ac6e000000000000000000000000000000000000000000000000000000008152600401611ede919061211f565b60405180910390fd5b505050565b6040518060a0016040528060608152602001606081526020015f81526020015f73ffffffffffffffffffffffffffffffffffffffff1681526020015f81525090565b5f604051905090565b5f5ffd5b5f5ffd5b5f7fffffffff0000000000000000000000000000000000000000000000000000000082169050919050565b611f7381611f3f565b8114611f7d575f5ffd5b50565b5f81359050611f8e81611f6a565b92915050565b5f60208284031215611fa957611fa8611f37565b5b5f611fb684828501611f80565b91505092915050565b5f8115159050919050565b611fd381611fbf565b82525050565b5f602082019050611fec5f830184611fca565b92915050565b5f81519050919050565b5f82825260208201905092915050565b8281835e5f83830152505050565b5f601f19601f8301169050919050565b5f61203482611ff2565b61203e8185611ffc565b935061204e81856020860161200c565b6120578161201a565b840191505092915050565b5f6020820190508181035f83015261207a818461202a565b905092915050565b5f819050919050565b61209481612082565b811461209e575f5ffd5b50565b5f813590506120af8161208b565b92915050565b5f602082840312156120ca576120c9611f37565b5b5f6120d7848285016120a1565b91505092915050565b5f73ffffffffffffffffffffffffffffffffffffffff82169050919050565b5f612109826120e0565b9050919050565b612119816120ff565b82525050565b5f6020820190506121325f830184612110565b92915050565b612141816120ff565b811461214b575f5ffd5b50565b5f8135905061215c81612138565b92915050565b5f5f6040838503121561217857612177611f37565b5b5f6121858582860161214e565b9250506020612196858286016120a1565b9150509250929050565b5f5f5f606084860312156121b7576121b6611f37565b5b5f6121c48682870161214e565b93505060206121d58682870161214e565b92505060406121e6868287016120a1565b9150509250925092565b5f6020828403121561220557612204611f37565b5b5f6122128482850161214e565b91505092915050565b61222481612082565b82525050565b5f60208201905061223d5f83018461221b565b92915050565b5f5ffd5b5f5ffd5b7f4e487b71000000000000000000000000000000000000000000000000000000005f52604160045260245ffd5b6122818261201a565b810181811067ffffffffffffffff821117156122a05761229f61224b565b5b80604052505050565b5f6122b2611f2e565b90506122be8282612278565b919050565b5f67ffffffffffffffff8211156122dd576122dc61224b565b5b6122e68261201a565b9050602081019050919050565b828183375f83830152505050565b5f61231361230e846122c3565b6122a9565b90508281526020810184848401111561232f5761232e612247565b5b61233a8482856122f3565b509392505050565b5f82601f83011261235657612355612243565b5b8135612366848260208601612301565b91505092915050565b5f819050919050565b6123818161236f565b811461238b575f5ffd5b50565b5f8135905061239c81612378565b92915050565b5f5f5f606084860312156123b9576123b8611f37565b5b5f84013567ffffffffffffffff8111156123d6576123d5611f3b565b5b6123e286828701612342565b935050602084013567ffffffffffffffff81111561240357612402611f3b565b5b61240f86828701612342565b92505060406124208682870161238e565b9150509250925092565b5f5f604083850312156124405761243f611f37565b5b5f61244d858286016120a1565b925050602061245e8582860161238e565b9150509250929050565b5f60408201905061247b5f830185611fca565b818103602083015261248d818461202a565b90509392505050565b61249f81611fbf565b81146124a9575f5ffd5b50565b5f813590506124ba81612496565b92915050565b5f5f604083850312156124d6576124d5611f37565b5b5f6124e38582860161214e565b92505060206124f4858286016124ac565b9150509250929050565b5f6020828403121561251357612512611f37565b5b5f6125208482850161238e565b91505092915050565b5f67ffffffffffffffff8211156125435761254261224b565b5b61254c8261201a565b9050602081019050919050565b5f61256b61256684612529565b6122a9565b90508281526020810184848401111561258757612586612247565b5b6125928482856122f3565b509392505050565b5f82601f8301126125ae576125ad612243565b5b81356125be848260208601612559565b91505092915050565b5f5f5f5f608085870312156125df576125de611f37565b5b5f6125ec8782880161214e565b94505060206125fd8782880161214e565b935050604061260e878288016120a1565b925050606085013567ffffffffffffffff81111561262f5761262e611f3b565b5b61263b8782880161259a565b91505092959194509250565b6126508161236f565b82525050565b5f60a0820190508181035f83015261266e818861202a565b90508181036020830152612682818761202a565b90506126916040830186612647565b61269e6060830185612110565b6126ab608083018461221b565b9695505050505050565b5f5f604083850312156126cb576126ca611f37565b5b5f6126d88582860161214e565b92505060206126e98582860161214e565b9150509250929050565b5f82825260208201905092915050565b5f61270d82611ff2565b61271781856126f3565b935061272781856020860161200c565b6127308161201a565b840191505092915050565b6127448161236f565b82525050565b612753816120ff565b82525050565b61276281612082565b82525050565b5f60a083015f8301518482035f8601526127828282612703565b9150506020830151848203602086015261279c8282612703565b91505060408301516127b1604086018261273b565b5060608301516127c4606086018261274a565b5060808301516127d76080860182612759565b508091505092915050565b5f6020820190508181035f8301526127fa8184612768565b905092915050565b7f4e487b71000000000000000000000000000000000000000000000000000000005f52602260045260245ffd5b5f600282049050600182168061284657607f821691505b60208210810361285957612858612802565b5b50919050565b5f6060820190506128725f830186612110565b61287f602083018561221b565b61288c6040830184612110565b949350505050565b7f4572726f723a2054686973206c6f676f206861736820697320616c72656164795f8201527f20726567697374657265642e0000000000000000000000000000000000000000602082015250565b5f6128ee602c83611ffc565b91506128f982612894565b604082019050919050565b5f6020820190508181035f83015261291b816128e2565b9050919050565b7f4e487b71000000000000000000000000000000000000000000000000000000005f52601160045260245ffd5b5f61295982612082565b91507fffffffffffffffffffffffffffffffffffffffffffffffffffffffffffffffff820361298b5761298a612922565b5b600182019050919050565b5f819050815f5260205f209050919050565b5f6020601f8301049050919050565b5f82821b905092915050565b5f600883026129f27fffffffffffffffffffffffffffffffffffffffffffffffffffffffffffffffff826129b7565b6129fc86836129b7565b95508019841693508086168417925050509392505050565b5f819050919050565b5f612a37612a32612a2d84612082565b612a14565b612082565b9050919050565b5f819050919050565b612a5083612a1d565b612a64612a5c82612a3e565b8484546129c3565b825550505050565b5f5f905090565b612a7b612a6c565b612a86818484612a47565b505050565b5b81811015612aa957612a9e5f82612a73565b600181019050612a8c565b5050565b601f821115612aee57612abf81612996565b612ac8846129a8565b81016020851015612ad7578190505b612aeb612ae3856129a8565b830182612a8b565b50505b505050565b5f82821c905092915050565b5f612b0e5f1984600802612af3565b1980831691505092915050565b5f612b268383612aff565b9150826002028217905092915050565b612b3f82611ff2565b67ffffffffffffffff811115612b5857612b5761224b565b5b612b62825461282f565b612b6d828285612aad565b5f60209050601f831160018114612b9e575f8415612b8c578287015190505b612b968582612b1b565b865550612bfd565b601f198416612bac86612996565b5f5b82811015612bd357848901518255600182019150602085019450602081019050612bae565b86831015612bf05784890151612bec601f891682612aff565b8355505b6001600288020188555050505b505050505050565b5f6040820190508181035f830152612c1d818561202a565b9050612c2c6020830184612647565b9392505050565b5f81905092915050565b5f612c4782611ff2565b612c518185612c33565b9350612c6181856020860161200c565b80840191505092915050565b5f612c788285612c3d565b9150612c848284612c3d565b91508190509392505050565b5f81519050919050565b5f82825260208201905092915050565b5f612cb482612c90565b612cbe8185612c9a565b9350612cce81856020860161200c565b612cd78161201a565b840191505092915050565b5f608082019050612cf55f830187612110565b612d026020830186612110565b612d0f604083018561221b565b8181036060830152612d218184612caa565b905095945050505050565b5f81519050612d3a81611f6a565b92915050565b5f60208284031215612d5557612d54611f37565b5b5f612d6284828501612d2c565b91505092915050565b7f4e487b71000000000000000000000000000000000000000000000000000000005f52601260045260245ffd5b5f604082019050612dab5f830185612110565b612db8602083018461221b565b939250505056fea264697066735822122026d65f33bbad110d30a9d96d83f7052be2fac100c36ea8089e76c3793c7489bd64736f6c634300081c0033",
  "linkReferences": {},
  "deployedLinkReferences": {},
  "immutableReferences": {},
  "inputSourceName": "project/contracts/ALUAssertRegistry.sol",
  "buildInfoId": "solc-0_8_28-5aa1515a0107ad15d8c7bae4e4a473a550bbb1c0"
}