{
  "_format": "hh3-artifact-1",
  "contractName": "ALULogoToken",
  "sourceName": "contracts/ALULogoToken.sol",
  "abi": [
    {
      "inputs": [
        {
          "internalType": "address",
          "name": "initialOwner",
          "type": "address"
        }
      ],
      "stateMutability": "nonpayable",
      "type": "constructor"
    },
    {
      "inputs": [
        {
          "internalType": "address",
          "name": "spender",
          "type": "address"
        },
        {
          "internalType": "uint256",
          "name": "allowance",
          "type": "uint256"
        },
        {
          "internalType": "uint256",
          "name": "needed",
          "type": "uint256"
        }
      ],
      "name": "ERC20InsufficientAllowance",
      "type": "error"
    },
    {
      "inputs": [
        {
          "internalType": "address",
          "name": "sender",
          "type": "address"
        },
        {
          "internalType": "uint256",
          "name": "balance",
          "type": "uint256"
        },
        {
          "internalType": "uint256",
          "name": "needed",
          "type": "uint256"
        }
      ],
      "name": "ERC20InsufficientBalance",
      "type": "error"
    },
    {
      "inputs": [
        {
          "internalType": "address",
          "name": "approver",
          "type": "address"
        }
      ],
      "name": "ERC20InvalidApprover",
      "type": "error"
    },
    {
      "inputs": [
        {
          "internalType": "address",
          "name": "receiver",
          "type": "address"
        }
      ],
      "name": "ERC20InvalidReceiver",
      "type": "error"
    },
    {
      "inputs": [
        {
          "internalType": "address",
          "name": "sender",
          "type": "address"
        }
      ],
      "name": "ERC20InvalidSender",
      "type": "error"
    },
    {
      "inputs": [
        {
          "internalType": "address",
          "name": "spender",
          "type": "address"
        }
      ],
      "name": "ERC20InvalidSpender",
      "type": "error"
    },
    {
      "inputs": [
        {
          "internalType": "address",
          "name": "owner",
          "type": "address"
        }
      ],
      "name": "OwnableInvalidOwner",
      "type": "error"
    },
    {
      "inputs": [
        {
          "internalType": "address",
          "name": "account",
          "type": "address"
        }
      ],
      "name": "OwnableUnauthorizedAccount",
      "type": "error"
    },
    {
      "anonymous": false,
      "inputs": [
        {
          "indexed": true,
          "internalType": "address",
          "name": "owner",
          "type": "address"
        },
        {
          "indexed": true,
          "internalType": "address",
          "name": "spender",
          "type": "address"
        },
        {
          "indexed": false,
          "internalType": "uint256",
          "name": "value",
          "type": "uint256"
        }
      ],
      "name": "Approval",
      "type": "event"
    },
    {
      "anonymous": false,
      "inputs": [
        {
          "indexed": true,
          "internalType": "address",
          "name": "previousOwner",
          "type": "address"
        },
        {
          "indexed": true,
          "internalType": "address",
          "name": "newOwner",
          "type": "address"
        }
      ],
      "name": "OwnershipTransferred",
      "type": "event"
    },
    {
      "anonymous": false,
      "inputs": [
        {
          "indexed": true,
          "internalType": "address",
          "name": "from",
          "type": "address"
        },
        {
          "indexed": true,
          "internalType": "address",
          "name": "to",
          "type": "address"
        },
        {
          "indexed": false,
          "internalType": "uint256",
          "name": "value",
          "type": "uint256"
        }
      ],
      "name": "Transfer",
      "type": "event"
    },
    {
      "inputs": [],
      "name": "TOTAL_SUPPLY",
      "outputs": [
        {
          "internalType": "uint256",
          "name": "",
          "type": "uint256"
        }
      ],
      "stateMutability": "view",
      "type": "function"
    },
    {
      "inputs": [
        {
          "internalType": "address",
          "name": "owner",
          "type": "address"
        },
        {
          "internalType": "address",
          "name": "spender",
          "type": "address"
        }
      ],
      "name": "allowance",
      "outputs": [
        {
          "internalType": "uint256",
          "name": "",
          "type": "uint256"
        }
      ],
      "stateMutability": "view",
      "type": "function"
    },
    {
      "inputs": [
        {
          "internalType": "address",
          "name": "spender",
          "type": "address"
        },
        {
          "internalType": "uint256",
          "name": "value",
          "type": "uint256"
        }
      ],
      "name": "approve",
      "outputs": [
        {
          "internalType": "bool",
          "name": "",
          "type": "bool"
        }
      ],
      "stateMutability": "nonpayable",
      "type": "function"
    },
    {
      "inputs": [
        {
          "internalType": "address",
          "name": "account",
          "type": "address"
        }
      ],
      "name": "balanceOf",
      "outputs": [
        {
          "internalType": "uint256",
          "name": "",
          "type": "uint256"
        }
      ],
      "stateMutability": "view",
      "type": "function"
    },
    {
      "inputs": [],
      "name": "decimals",
      "outputs": [
        {
          "internalType": "uint8",
          "name": "",
          "type": "uint8"
        }
      ],
      "stateMutability": "view",
      "type": "function"
    },
    {
      "inputs": [
        {
          "internalType": "address",
          "name": "recipient",
          "type": "address"
        },
        {
          "internalType": "uint256",
          "name": "amount",
          "type": "uint256"
        }
      ],
      "name": "distributeShares",
      "outputs": [],
      "stateMutability": "nonpayable",
      "type": "function"
    },
    {
      "inputs": [],
      "name": "name",
      "outputs": [
        {
          "internalType": "string",
          "name": "",
          "type": "string"
        }
      ],
      "stateMutability": "view",
      "type": "function"
    },
    {
      "inputs": [],
      "name": "owner",
      "outputs": [
        {
          "internalType": "address",
          "name": "",
          "type": "address"
        }
      ],
      "stateMutability": "view",
      "type": "function"
    },
    {
      "inputs": [
        {
          "internalType": "address",
          "name": "account",
          "type": "address"
        }
      ],
      "name": "ownershipPercentage",
      "outputs": [
        {
          "internalType": "uint256",
          "name": "",
          "type": "uint256"
        }
      ],
      "stateMutability": "view",
      "type": "function"
    },
    {
      "inputs": [],
      "name": "renounceOwnership",
      "outputs": [],
      "stateMutability": "nonpayable",
      "type": "function"
    },
    {
      "inputs": [],
      "name": "symbol",
      "outputs": [
        {
          "internalType": "string",
          "name": "",
          "type": "string"
        }
      ],
      "stateMutability": "view",
      "type": "function"
    },
    {
      "inputs": [],
      "name": "totalSupply",
      "outputs": [
        {
          "internalType": "uint256",
          "name": "",
          "type": "uint256"
        }
      ],
      "stateMutability": "view",
      "type": "function"
    },
    {
      "inputs": [
        {
          "internalType": "address",
          "name": "to",
          "type": "address"
        },
        {
          "internalType": "uint256",
          "name": "value",
          "type": "uint256"
        }
      ],
      "name": "transfer",
      "outputs": [
        {
          "internalType": "bool",
          "name": "",
          "type": "bool"
        }
      ],
      "stateMutability": "nonpayable",
      "type": "function"
    },
    {
      "inputs": [
        {
          "internalType": "address",
          "name": "from",
          "type": "address"
        },
        {
          "internalType": "address",
          "name": "to",
          "type": "address"
        },
        {
          "internalType": "uint256",
          "name": "value",
          "type": "uint256"
        }
      ],
      "name": "transferFrom",
      "outputs": [
        {
          "internalType": "bool",
          "name": "",
          "type": "bool"
        }
      ],
      "stateMutability": "nonpayable",
      "type": "function"
    },
    {
      "inputs": [
        {
          "internalType": "address",
          "name": "newOwner",
          "type": "address"
        }
      ],
      "name": "transferOwnership",
      "outputs": [],
      "stateMutability": "nonpayable",
      "type": "function"
    }
  ],
  "bytecode": "0x608060405234801561000f575f5ffd5b50604051611bfa380380611bfa8339818101604052810190610031919061051f565b806040518060400160405280600e81526020017f414c55204c6f676f20546f6b656e0000000000000000000000000000000000008152506040518060400160405280600481526020017f414c55540000000000000000000000000000000000000000000000000000000081525081600390816100ad9190610787565b5080600490816100bd9190610787565b5050505f73ffffffffffffffffffffffffffffffffffffffff168173ffffffffffffffffffffffffffffffffffffffff1603610130575f6040517f1e4fbdf70000000000000000000000000000000000000000000000000000000081526004016101279190610865565b60405180910390fd5b61013f8161016060201b60201c565b5061015a8169d3c21bcecceda100000061022360201b60201c565b5061093b565b5f60055f9054906101000a900473ffffffffffffffffffffffffffffffffffffffff1690508160055f6101000a81548173ffffffffffffffffffffffffffffffffffffffff021916908373ffffffffffffffffffffffffffffffffffffffff1602179055508173ffffffffffffffffffffffffffffffffffffffff168173ffffffffffffffffffffffffffffffffffffffff167f8be0079c531659141344cd1fd0a4f28419497f9722a3daafe3b4186f6b6457e060405160405180910390a35050565b5f73ffffffffffffffffffffffffffffffffffffffff168273ffffffffffffffffffffffffffffffffffffffff1603610293575f6040517fec442f0500000000000000000000000000000000000000000000000000000000815260040161028a9190610865565b60405180910390fd5b6102a45f83836102a860201b60201c565b5050565b5f73ffffffffffffffffffffffffffffffffffffffff168373ffffffffffffffffffffffffffffffffffffffff16036102f8578060025f8282546102ec91906108ab565b925050819055506103c6565b5f5f5f8573ffffffffffffffffffffffffffffffffffffffff1673ffffffffffffffffffffffffffffffffffffffff1681526020019081526020015f2054905081811015610381578381836040517fe450d38c000000000000000000000000000000000000000000000000000000008152600401610378939291906108ed565b60405180910390fd5b8181035f5f8673ffffffffffffffffffffffffffffffffffffffff1673ffffffffffffffffffffffffffffffffffffffff1681526020019081526020015f2081905550505b5f73ffffffffffffffffffffffffffffffffffffffff168273ffffffffffffffffffffffffffffffffffffffff160361040d578060025f8282540392505081905550610457565b805f5f8473ffffffffffffffffffffffffffffffffffffffff1673ffffffffffffffffffffffffffffffffffffffff1681526020019081526020015f205f82825401925050819055505b8173ffffffffffffffffffffffffffffffffffffffff168373ffffffffffffffffffffffffffffffffffffffff167fddf252ad1be2c89b69c2b068fc378daa952ba7f163c4a11628f55a4df523b3ef836040516104b49190610922565b60405180910390a3505050565b5f5ffd5b5f73ffffffffffffffffffffffffffffffffffffffff82169050919050565b5f6104ee826104c5565b9050919050565b6104fe816104e4565b8114610508575f5ffd5b50565b5f81519050610519816104f5565b92915050565b5f60208284031215610534576105336104c1565b5b5f6105418482850161050b565b91505092915050565b5f81519050919050565b7f4e487b71000000000000000000000000000000000000000000000000000000005f52604160045260245ffd5b7f4e487b71000000000000000000000000000000000000000000000000000000005f52602260045260245ffd5b5f60028204905060018216806105c557607f821691505b6020821081036105d8576105d7610581565b5b50919050565b5f819050815f5260205f209050919050565b5f6020601f8301049050919050565b5f82821b905092915050565b5f6008830261063a7fffffffffffffffffffffffffffffffffffffffffffffffffffffffffffffffff826105ff565b61064486836105ff565b95508019841693508086168417925050509392505050565b5f819050919050565b5f819050919050565b5f61068861068361067e8461065c565b610665565b61065c565b9050919050565b5f819050919050565b6106a18361066e565b6106b56106ad8261068f565b84845461060b565b825550505050565b5f5f905090565b6106cc6106bd565b6106d7818484610698565b505050565b5b818110156106fa576106ef5f826106c4565b6001810190506106dd565b5050565b601f82111561073f57610710816105de565b610719846105f0565b81016020851015610728578190505b61073c610734856105f0565b8301826106dc565b50505b505050565b5f82821c905092915050565b5f61075f5f1984600802610744565b1980831691505092915050565b5f6107778383610750565b9150826002028217905092915050565b6107908261054a565b67ffffffffffffffff8111156107a9576107a8610554565b5b6107b382546105ae565b6107be8282856106fe565b5f60209050601f8311600181146107ef575f84156107dd578287015190505b6107e7858261076c565b86555061084e565b601f1984166107fd866105de565b5f5b82811015610824578489015182556001820191506020850194506020810190506107ff565b86831015610841578489015161083d601f891682610750565b8355505b6001600288020188555050505b505050505050565b61085f816104e4565b82525050565b5f6020820190506108785f830184610856565b92915050565b7f4e487b71000000000000000000000000000000000000000000000000000000005f52601160045260245ffd5b5f6108b58261065c565b91506108c08361065c565b92508282019050808211156108d8576108d761087e565b5b92915050565b6108e78161065c565b82525050565b5f6060820190506109005f830186610856565b61090d60208301856108de565b61091a60408301846108de565b949350505050565b5f6020820190506109355f8301846108de565b92915050565b6112b2806109485f395ff3fe608060405234801561000f575f5ffd5b50600436106100f3575f3560e01c80638da5cb5b11610095578063d8dab03311610064578063d8dab03314610275578063dd62ed3e146102a5578063debcf0e5146102d5578063f2fde38b146102f1576100f3565b80638da5cb5b146101eb578063902d55a51461020957806395d89b4114610227578063a9059cbb14610245576100f3565b806323b872dd116100d157806323b872dd14610163578063313ce5671461019357806370a08231146101b1578063715018a6146101e1576100f3565b806306fdde03146100f7578063095ea7b31461011557806318160ddd14610145575b5f5ffd5b6100ff61030d565b60405161010c9190610e25565b60405180910390f35b61012f600480360381019061012a9190610ed6565b61039d565b60405161013c9190610f2e565b60405180910390f35b61014d6103bf565b60405161015a9190610f56565b60405180910390f35b61017d60048036038101906101789190610f6f565b6103c8565b60405161018a9190610f2e565b60405180910390f35b61019b6103f6565b6040516101a89190610fda565b60405180910390f35b6101cb60048036038101906101c69190610ff3565b6103fe565b6040516101d89190610f56565b60405180910390f35b6101e9610443565b005b6101f3610456565b604051610200919061102d565b60405180910390f35b61021161047e565b60405161021e9190610f56565b60405180910390f35b61022f61048c565b60405161023c9190610e25565b60405180910390f35b61025f600480360381019061025a9190610ed6565b61051c565b60405161026c9190610f2e565b60405180910390f35b61028f600480360381019061028a9190610ff3565b61053e565b60405161029c9190610f56565b60405180910390f35b6102bf60048036038101906102ba9190611046565b610575565b6040516102cc9190610f56565b60405180910390f35b6102ef60048036038101906102ea9190610ed6565b6105f7565b005b61030b60048036038101906103069190610ff3565b610663565b005b60606003805461031c906110b1565b80601f0160208091040260200160405190810160405280929190818152602001828054610348906110b1565b80156103935780601f1061036a57610100808354040283529160200191610393565b820191905f5260205f20905b81548152906001019060200180831161037657829003601f168201915b5050505050905090565b5f5f6103a76106e7565b90506103b48185856106ee565b600191505092915050565b5f600254905090565b5f5f6103d26106e7565b90506103df858285610700565b6103ea858585610793565b60019150509392505050565b5f6012905090565b5f5f5f8373ffffffffffffffffffffffffffffffffffffffff1673ffffffffffffffffffffffffffffffffffffffff1681526020019081526020015f20549050919050565b61044b610883565b6104545f61090a565b565b5f60055f9054906101000a900473ffffffffffffffffffffffffffffffffffffffff16905090565b69d3c21bcecceda100000081565b60606004805461049b906110b1565b80601f01602080910402602001604051908101604052809291908181526020018280546104c7906110b1565b80156105125780601f106104e957610100808354040283529160200191610512565b820191905f5260205f20905b8154815290600101906020018083116104f557829003601f168201915b5050505050905090565b5f5f6105266106e7565b9050610533818585610793565b600191505092915050565b5f5f610549836103fe565b905069d3c21bcecceda1000000606482610563919061110e565b61056d919061117c565b915050919050565b5f60015f8473ffffffffffffffffffffffffffffffffffffffff1673ffffffffffffffffffffffffffffffffffffffff1681526020019081526020015f205f8373ffffffffffffffffffffffffffffffffffffffff1673ffffffffffffffffffffffffffffffffffffffff1681526020019081526020015f2054905092915050565b6105ff610883565b5f8111610641576040517f08c379a0000000000000000000000000000000000000000000000000000000008152600401610638906111f6565b60405180910390fd5b61065f3383670de0b6b3a76400008461065a919061110e565b610793565b5050565b61066b610883565b5f73ffffffffffffffffffffffffffffffffffffffff168173ffffffffffffffffffffffffffffffffffffffff16036106db575f6040517f1e4fbdf70000000000000000000000000000000000000000000000000000000081526004016106d2919061102d565b60405180910390fd5b6106e48161090a565b50565b5f33905090565b6106fb83838360016109cd565b505050565b5f61070b8484610575565b90507fffffffffffffffffffffffffffffffffffffffffffffffffffffffffffffffff81101561078d578181101561077e578281836040517ffb8f41b200000000000000000000000000000000000000000000000000000000815260040161077593929190611214565b60405180910390fd5b61078c84848484035f6109cd565b5b50505050565b5f73ffffffffffffffffffffffffffffffffffffffff168373ffffffffffffffffffffffffffffffffffffffff1603610803575f6040517f96c6fd1e0000000000000000000000000000000000000000000000000000000081526004016107fa919061102d565b60405180910390fd5b5f73ffffffffffffffffffffffffffffffffffffffff168273ffffffffffffffffffffffffffffffffffffffff1603610873575f6040517fec442f0500000000000000000000000000000000000000000000000000000000815260040161086a919061102d565b60405180910390fd5b61087e838383610b9c565b505050565b61088b6106e7565b73ffffffffffffffffffffffffffffffffffffffff166108a9610456565b73ffffffffffffffffffffffffffffffffffffffff1614610908576108cc6106e7565b6040517f118cdaa70000000000000000000000000000000000000000000000000000000081526004016108ff919061102d565b60405180910390fd5b565b5f60055f9054906101000a900473ffffffffffffffffffffffffffffffffffffffff1690508160055f6101000a81548173ffffffffffffffffffffffffffffffffffffffff021916908373ffffffffffffffffffffffffffffffffffffffff1602179055508173ffffffffffffffffffffffffffffffffffffffff168173ffffffffffffffffffffffffffffffffffffffff167f8be0079c531659141344cd1fd0a4f28419497f9722a3daafe3b4186f6b6457e060405160405180910390a35050565b5f73ffffffffffffffffffffffffffffffffffffffff168473ffffffffffffffffffffffffffffffffffffffff1603610a3d575f6040517fe602df05000000000000000000000000000000000000000000000000000000008152600401610a34919061102d565b60405180910390fd5b5f73ffffffffffffffffffffffffffffffffffffffff168373ffffffffffffffffffffffffffffffffffffffff1603610aad575f6040517f94280d62000000000000000000000000000000000000000000000000000000008152600401610aa4919061102d565b60405180910390fd5b8160015f8673ffffffffffffffffffffffffffffffffffffffff1673ffffffffffffffffffffffffffffffffffffffff1681526020019081526020015f205f8573ffffffffffffffffffffffffffffffffffffffff1673ffffffffffffffffffffffffffffffffffffffff1681526020019081526020015f20819055508015610b96578273ffffffffffffffffffffffffffffffffffffffff168473ffffffffffffffffffffffffffffffffffffffff167f8c5be1e5ebec7d5bd14f71427d1e84f3dd0314c0f7b2291e5b200ac8c7c3b92584604051610b8d9190610f56565b60405180910390a35b50505050565b5f73ffffffffffffffffffffffffffffffffffffffff168373ffffffffffffffffffffffffffffffffffffffff1603610bec578060025f828254610be09190611249565b92505081905550610cba565b5f5f5f8573ffffffffffffffffffffffffffffffffffffffff1673ffffffffffffffffffffffffffffffffffffffff1681526020019081526020015f2054905081811015610c75578381836040517fe450d38c000000000000000000000000000000000000000000000000000000008152600401610c6c93929190611214565b60405180910390fd5b8181035f5f8673ffffffffffffffffffffffffffffffffffffffff1673ffffffffffffffffffffffffffffffffffffffff1681526020019081526020015f2081905550505b5f73ffffffffffffffffffffffffffffffffffffffff168273ffffffffffffffffffffffffffffffffffffffff1603610d01578060025f8282540392505081905550610d4b565b805f5f8473ffffffffffffffffffffffffffffffffffffffff1673ffffffffffffffffffffffffffffffffffffffff1681526020019081526020015f205f82825401925050819055505b8173ffffffffffffffffffffffffffffffffffffffff168373ffffffffffffffffffffffffffffffffffffffff167fddf252ad1be2c89b69c2b068fc378daa952ba7f163c4a11628f55a4df523b3ef83604051610da89190610f56565b60405180910390a3505050565b5f81519050919050565b5f82825260208201905092915050565b8281835e5f83830152505050565b5f601f19601f8301169050919050565b5f610df782610db5565b610e018185610dbf565b9350610e11818560208601610dcf565b610e1a81610ddd565b840191505092915050565b5f6020820190508181035f830152610e3d8184610ded565b905092915050565b5f5ffd5b5f73ffffffffffffffffffffffffffffffffffffffff82169050919050565b5f610e7282610e49565b9050919050565b610e8281610e68565b8114610e8c575f5ffd5b50565b5f81359050610e9d81610e79565b92915050565b5f819050919050565b610eb581610ea3565b8114610ebf575f5ffd5b50565b5f81359050610ed081610eac565b92915050565b5f5f60408385031215610eec57610eeb610e45565b5b5f610ef985828601610e8f565b9250506020610f0a85828601610ec2565b9150509250929050565b5f8115159050919050565b610f2881610f14565b82525050565b5f602082019050610f415f830184610f1f565b92915050565b610f5081610ea3565b82525050565b5f602082019050610f695f830184610f47565b92915050565b5f5f5f60608486031215610f8657610f85610e45565b5b5f610f9386828701610e8f565b9350506020610fa486828701610e8f565b9250506040610fb586828701610ec2565b9150509250925092565b5f60ff82169050919050565b610fd481610fbf565b82525050565b5f602082019050610fed5f830184610fcb565b92915050565b5f6020828403121561100857611007610e45565b5b5f61101584828501610e8f565b91505092915050565b61102781610e68565b82525050565b5f6020820190506110405f83018461101e565b92915050565b5f5f6040838503121561105c5761105b610e45565b5b5f61106985828601610e8f565b925050602061107a85828601610e8f565b9150509250929050565b7f4e487b71000000000000000000000000000000000000000000000000000000005f52602260045260245ffd5b5f60028204905060018216806110c857607f821691505b6020821081036110db576110da611084565b5b50919050565b7f4e487b71000000000000000000000000000000000000000000000000000000005f52601160045260245ffd5b5f61111882610ea3565b915061112383610ea3565b925082820261113181610ea3565b91508282048414831517611148576111476110e1565b5b5092915050565b7f4e487b71000000000000000000000000000000000000000000000000000000005f52601260045260245ffd5b5f61118682610ea3565b915061119183610ea3565b9250826111a1576111a061114f565b5b828204905092915050565b7f416d6f756e74206d7573742062652067726561746572207468616e207a65726f5f82015250565b5f6111e0602083610dbf565b91506111eb826111ac565b602082019050919050565b5f6020820190508181035f83015261120d816111d4565b9050919050565b5f6060820190506112275f83018661101e565b6112346020830185610f47565b6112416040830184610f47565b949350505050565b5f61125382610ea3565b915061125e83610ea3565b9250828201905080821115611276576112756110e1565b5b9291505056fea26469706673582212202785c5dbd1df4d73b5bf1abe61cdb0a58ba27914f6e29c0b61b9a9d37918549e64736f6c634300081c0033",
  "linkReferences": {},
  "deployedLinkReferences": {},
  "immutableReferences": {},
  "inputSourceName": "project/contracts/ALULogoToken.sol",
  "buildInfoId": "solc-0_8_28-5aa1515a0107ad15d8c7bae4e4a473a550bbb1c0"
}